:200000009FC00000B8C00000B6C00000B4C00000B2C00000B0C00000AEC00000ACC0000063
:20002000AAC00000A8C00000A6C0000048C40000EDC40000A0C000009EC000009CC00000B1
:200040009AC0000098C0000096C0000094C0000092C0000090C000008EC0000002C2000090
:200060008AC0000088C0000086C0000084C0000082C0000069058B0577068B057706D005C5
:20008000ED0577063F0651062E03410072006400750069006E006F00200044007500650014
:2000A0002000500072006F0067002E00200050006F00720074000000320341007200640049
:2000C000750069006E006F00200028007700770077002E00610072006400750069006E0007
:2000E0006F002E0063006300290000000403090409023E00020100C0320904000001020210
:2001000001000524000110042402060524060001070582030800FF09040100020A00000092
:200120000705040240000107058302400001120110010200000841233D0001000102DC01EA
:2001400011241FBECFEFD2E0DEBFCDBF11E0A0E0B1E0E4E3F0E102C005900D92A831B107D3
:20016000D9F722E0A8E1B1E001C01D92A833B207E1F776D05DC744CFFC01E058FF4FA08196
:20018000B1816C93A081B1819D012F5F3F4F318320832E173F0721F412969C938E9311978A
:2001A0002FB7F894FC01EC57FF4F80818F5F80832FBF0895DC01AE57BF4FED91FC9111971F
:2001C00021911196FC93EE93AC0140585F4FE417F50711F48D939C933FB7F894FC01EC57B6
:2001E000FF4F9081915090833FBF822F0895882311F03F9A01C03F9847980895882311F01B
:2002000046980895469A089584B7877F84BF0FB6F894A89580916000886180936000109265
:2002200060000FBE80E0E3DF469A3E9A87E690E09093CD008093CC0086E08093CA00109226
:20024000C80088E18093C900539A5A9A8AB180638AB98BB180638BB927D384E085BD0895AF
:20026000D3DF2FB7F89487EA91E0909328028093270290932A02809329022FBF2FB7F89402
:2002800082E291E09093A3018093A2019093A5018093A4012FBF7894D3E09FB7F8948091EB
:2002A0002B029FBF803849F082E091E052D697FD04C0682F87EA91E05FDF8FB7F894C09195
:2002C000A6018FBFA89903C0C13608F453C0A89A8091A601882319F05D98D0931F01CC230A
:2002E00049F082E291E066DF682F82E091E0D2D5C150F5CF80911F01882341F080911F0187
:20030000815080931F01811101C05D9A80912001882341F0809120018150809320018111B8
:2003200001C05C9A80911D0190911E0118161906ECF4CC978C34910510F481E001C080E02B
:200340005DDF80911D0190911E010197C29710F481E001C080E04BDF80911D0190911E01E2
:20036000019790931E0180931D0104C080E046DF80E03DDF9FB7F89480912B029FBF882384
:2003800061F087EA91E016DF9091C80095FFFCCF8093CE005C98D093200182E091E0CBD521
:2003A000B3D47BCF82E091E02BC582E091E0BEC4CF92DF92EF92FF92CF93FC018489813053
:2003C00021F0823021F4C0E203C0C0E301C0C0E08389823009F4C8608589873031F088305B
:2003E00031F0863029F4C26003C0C46001C0C6601092C9001092C8001092CA00C784D08835
:20040000E188F28881E090EBC91694E0D906E104F10409F080E080931801C701B60122E00B
:2004200030E040E050E0E2D5CA01B90160587B47814E9F4FA7019601B7D5215031093093B0
:20044000CD002093CC00C093CA0082E08093C80088E98093C900CF91FF90EF90DF90CF906D
:2004600008951F920F920FB60F9211242F933F934F935F936F937F938F939F93AF93BF938E
:20048000EF93FF936091CE008EB3843019F482E291E072DEFF91EF91BF91AF919F918F9172
:2004A0007F916F915F914F913F912F910F900FBE0F901F90189520911C0120931B01309107
:2004C0001A0130931901FC018585982F917090931C018695817080931A0180911801882306
:2004E00019F087E890E006C0211108C0992331F082E390E090931E0180931D010895292F3A
:2005000033272230310559F02330310569F021303105F9F482E190E02EE231E01EC08EE317
:2005200090E020EF30E019C099278130910541F08230910541F0892B61F4ECEEF0E005C02A
:20054000E8EBF0E002C0E8E8F0E0849190E09F0104C080E090E020E030E0FA01318320837B
:200560000895AC0128E030E080E02417350720F48F5F220F331FF9CF8295807F089580932F
:20058000E900EBEEF0E0808181608083EDEEF0E010826093EC0040838091EE00881F8827B0
:2005A000881F08951092F40080E08093E9001092F0001092E8001092ED009091EB009E7F31
:2005C0009093EB008F5F853081F708958091300287FF0FC08091E80082FD04C08EB38111AE
:2005E000F9CF10C08091E8008B770AC08EB3882349F08091E80080FFF9CF8091E8008E773B
:200600008093E800089585E69091EC0090FF05C09091E80090FF05C01BC09091E80092FDA6
:2006200017C09EB39923B1F09EB39530A9F09091EB0095FD13C09091E10092FFE5CF9091AD
:20064000E1009B7F9093E1008150F1F684E0089580E0089582E0089583E0089581E00895E8
:2006600020913602309137022617370748F06115710539F42091E8002E772093E80001C031
:20068000B90130E06115710561F12091E80023FD37C02091E80022FD2DC02EB3222391F155
:2006A0002EB3253089F12091E80020FFEBCF2091F200FC01CF016115710549F0283038F4FF
:2006C00081918093F100615071092F5FF3CF31E0283009F030E02091E8002E772093E8003E
:2006E000D1CF3111D2CF06C08EB3882359F08EB3853051F08091E80082FFF6CF80E0089509
:2007000081E0089582E0089583E0089520913602309137022617370748F06115710539F42D
:200720002091E8002E772093E80001C0B90130E06115710569F12091E80023FD38C02091AD
:20074000E80022FD2EC02EB3222399F12EB3253091F12091E80020FFEBCF2091F200FC012A
:20076000CF016115710551F0283040F484918093F100615071092F5F3196F2CF31E028302D
:2007800009F030E02091E8002E772093E800D0CF3111D1CF06C08EB3882359F08EB3853005
:2007A00051F08091E80082FFF6CF80E0089581E0089582E0089583E008956115710529F4B6
:2007C0002091E8002B772093E8006115710511F12091E80023FD24C02EB3222319F12EB3A7
:2007E000253011F12091E80022FFEFCF2091F200222331F301962091F100FC01319720837D
:200800006150710999F7DCCF8EB3882359F08EB3853051F08091E80080FFF6CF80E00895CC
:2008200081E0089582E0089583E0089542D044D01EBA10922E0210922D0210922C0284E0E6
:2008400089BD89B5826089BD09B400FEFDCF8091D800982F9F779093D80080688093D800D1
:20086000809163008E7F809363008091D8008F7D8093D8008091E0008E7F8093E00080919F
:20088000E1008E7F8093E1008091E20081608093E2008091E100877F8093E1008091E200CE
:2008A00088608093E2000895C1DF81E080932F0208951092E20008951092E10008951F92EA
:2008C0000F920FB60F9211242F933F934F935F936F937F938F939F93AF93BF93EF93FF9364
:2008E0008091E10080FF1BC08091E20080FF17C08091E1008E7F8093E1008091E2008E7F70
:200900008093E2008091E20080618093E2008091D80080628093D80019BC1EBAF4D18091E0
:20092000E10084FF29C08091E20084FF25C084E089BD89B5826089BD09B400FEFDCF809167
:20094000D8008F7D8093D8008091E1008F7E8093E1008091E2008F7E8093E2008091E200ED
:2009600081608093E20080912E02811102C081E001C084E08EBBC7D18091E10083FF27C04A
:200980008091E20083FF23C08091E100877F8093E10082E08EBB10922E028091E1008E7F97
:2009A0008093E1008091E2008E7F8093E2008091E20080618093E200F5DD42E060E080E0F1
:2009C000DEDD8091F00088608093F0009CD18091E10082FF0AC08091E20082FF06C080917B
:2009E000E1008B7F8093E1008ED1FF91EF91BF91AF919F918F917F916F915F914F913F9119
:200A00002F910F900FBE0F901F9018951F920F920FB60F921124FF920F931F932F933F9349
:200A20004F935F936F937F938F939F93AF93BF93CF93DF93EF93FF93C9EED0E08881877097
:200A4000F82E188200EF10E0F8018081877F808378941DD0F8941882F801808188608083F0
:200A6000F882FF91EF91DF91CF91BF91AF919F918F917F916F915F914F913F912F911F911C
:200A80000F91FF900F900FBE0F901F9018951F93CF93DF93CDB7DEB7AA970FB6F894DEBFF2
:200AA0000FBECDBFE0E3F2E088E08E0F9091F10091938E13FBCF8091300290913102492F93
:200AC00050E04A30510508F012C1FA01E65CFF4FA9C2803881F0823809F009C18091340268
:200AE00087708093E9008091EB0085FB882780F91092E90006C080912C0290912D029111DD
:200B000082609091E800977F9093E8008093F1001092F100BFC0282F2D7F09F0E8C0882364
:200B200019F0823061F0D4C080913202813009F0CFC0933009F080E080932D022BC080913D
:200B40003202811127C080913402877009F4C0C08093E9002091EB0020FFBAC0933021F424
:200B60008091EB00806214C09091EB0090619093EB0021E030E0A90102C0440F551F8A9555
:200B8000E2F74093EA001092EA008091EB0088608093EB001092E9008091E800877F7DC08A
:200BA0008111A5C0109132028091E800877F8093E8000CDD8091E80080FD04C08EB3811179
:200BC000F9CF86C0812F8F7711F492E001C093E09EBB80688093E3007BC08058823008F0B2
:200BE00086C080913202909133028C3D53E0950779F583E08A838AE289833FB7F894DE01C5
:200C0000139690E02EE041E2E22FF0E040935700E49190FF03C0E295EF702F5FEF7080E392
:200C20008E0F8A3310F0E95C01C0E82FF0E0ED93FD939F5F943141F73FBF8091E800877F65
:200C40008093E8006AE270E0CE01019609DD11C0AE014F5F5F4F6091340251DCBC01892B10
:200C6000B9F19091E800977F9093E80089819A814DDD8091E8008B778093E80029C08038BA
:200C8000B1F58091E800877F8093E80080912E028093F1008091E8008E778093E80096DC04
:200CA00017C0811124C090913202923088F48091E800877F8093E80090932E0287DC809193
:200CC0002E02811102C083E001C084E08EBB6ADB8091E80083FF0DC08091EB008062809341
:200CE000EB008091E800877F8093E80002C05DDBEFCFAA960FB6F894DEBF0FBECDBFDF9160
:200D0000CF911F9108950895CF938EB3882359F0C091E900C7701092E9008091E80083FD7D
:200D2000B6DEC093E900CF9108950895CF93DF932091E80023FF61C0FC01208130E040911A
:200D40003402509135024217530709F056C0EC0180913102813249F018F48032C9F04DC0E2
:200D6000823261F18332C9F148C080913002813A09F043C08091E800877F8093E80067E0BB
:200D800070E0CF010F966CDC8091E8008B7713C080913002813289F58091E800877F8093F2
:200DA000E80067E070E0CF010F9607DDCE0100DB8091E8008E778093E8001FC08091300296
:200DC0008132D9F48091E800877F8093E800809132028587CF016FDB0DC08091300281326B
:200DE00061F48091E800877F8093E80060913202CF019BDFDF91CF91E9CBDF91CF91089544
:200E00000F931F93CF93DF93EC01FC013D9689E0DF011D928A95E9F78A819B812C812111F0
:200E200002C010E001C014E009819BDB812B482F426061E8802FA3DB882331F18E819F8114
:200E40002885211102C010E001C014E00D8189DB812B482F426060E8802F91DB8823A1F0F6
:200E60008A859B852C85211102C010E001C014E0C98577DB812B482F426061EC8C2FDF911C
:200E8000CF911F910F917BCB80E0DF91CF911F910F9108950F931F93CF932EB32430F1F46F
:200EA000FC010785108921893289012B022B032BA9F0C62F81818093E9008091E80085FF1B
:200EC00004C0C093F10080E00AC08091E8008E778093E80098DB8823A1F301C082E0CF91B2
:200EE0001F910F9108952EB3243019F5FC014785508961897289452B462B472BD1F0818125
:200F00008093E9008091F200882389F09091E8008091E8008E778093E80095FD08C073DB04
:200F2000811108C08091E8008E778093E80080E0089582E008952EB3243051F4FC0147851F
:200F4000508961897289452B462B472B09F0CBCF08952EB3243019F08FEF9FEF0895FC016C
:200F60004785508961897289452B462B472BA1F385818093E9008091E80082FFEDCF8091B7
:200F8000F200882321F02091F10030E002C02FEF3FEF8091F200811105C08091E8008B778E
:200FA0008093E800C9010895A1E21A2EAA1BBB1BFD010DC0AA1FBB1FEE1FFF1FA217B3075D
:200FC000E407F50720F0A21BB30BE40BF50B661F771F881F991F1A9469F760957095809519
:200FE00090959B01AC01BD01CF010895052E97FB16F400940FD057FD05D0D6DF07FC02D063
:2010000046F408C050954095309521953F4F4F4F5F4F089590958095709561957F4F8F4F41
:201020009F4F0895EE0FFF1F0590F491E02D0994F894FFCF1400000340000004400000024F
:0C1040000800000000000000000000009C
:00000001FF
